S016000055736172745472616E73706F72742E7372656332
S11300000C942A000C9447000C9447000C9447006D
S11300100C9447000C9447000C9447000C94470040
S11300200C9447000C9447000C9447000C94470030
S11300300C9447000C9469020C9447000C94A2029F
S11300400C9447000C9447000C9447000C94470010
S11300500C94470011241FBECFE5D8E0DEBFCDBF0E
S113006012E0A0E6B0E0E6E4F1E102C005900D92F2
S1130070A232B107D9F724E0A2E2B2E001C01D9296
S1130080AE33B207E1F70E94D6070C94A1080C9492
S11300900000AF92BF92CF92DF92EF92FF920F9344
S11300A01F93CF93DF93CDB7DEB760970FB6F89465
S11300B0DEBF0FBECDBFA982BA82CB82DC82298784
S11300C03A874B875C8789819A81AB81BC818C3F5D
S11300D09D4FAE4FBA4F81F481E009851A852B8577
S11300E03C854DA15EA16FA178A5041715072607CD
S11300F0370719F080E001C080E060960FB6F894ED
S1130100DEBF0FBECDBFDF91CF911F910F91FF9046
S1130110EF90DF90CF90BF90AF900895AF92BF92D1
S1130120CF92DF92EF92FF920F931F93CF93DF93BF
S1130130CDB7DEB760970FB6F894DEBF0FBECDBF64
S1130140A982BA82CB82DC8281E049815A816B81A7
S11301507C814C3F5D4F6E4F7A4F09F480E060968E
S11301600FB6F894DEBF0FBECDBFDF91CF911F91C4
S11301700F91FF90EF90DF90CF90BF90AF900895D4
S11301808FB390E0A0E0B0E0BA2FA92F982F882772
S11301908093320490933304A0933404B0933504D1
S11301A02EB3822B8093320490933304A0933404AF
S11301B0B09335049C5FAF4FBF4F80933A04909344
S11301C03B04A0933C04B0933D040895E199FECF11
S11301D07FBB6EBB4DBBE29AE19A0895CF92DF924A
S11301E0EF92FF920F931F93CF93DF932223C9F0D3
S11301F0EA012150022F10E00F5F1F4F040F151F5B
S1130200C62ED72EE82EF92E4991C701B6010E94B9
S1130210E6008FEFC81AD80AE80AF80AC017D1070F
S113022099F7DF91CF911F910F91FF90EF90DF909D
S1130230CF900895EF92FF921F93CF93DF93CDB7A2
S1130240DEB7A8970FB6F894DEBF0FBECDBF7B0113
S1130250FE01319680E1DF011D928A95E9F78091D4
S113026032028823F1F010E0B0E11B9F90011124C9
S11302708091320490913304A0913404B0913504F8
S1130280BC01CD01620F731F811D911D20E1AE01E0
S11302904F5F5F4F0E94EE001F5F8091320218177C
S11302A018F3AE014F5E5F4F88E1FA0111928A950F
S11302B0E9F78CEF9DEFAEEFBAEF898B9A8BAB8B9E
S11302C0BC8B60913604709137048091380490910E
S11302D0390428E10E94EE0085E1EBE7F0E0D70164
S11302E001900D928A95E1F7A8960FB6F894DEBFB7
S11302F00FBECDBFDF91CF911F91FF90EF90089576
S1130300E199FECF7FBB6EBBE09A8DB30895CF9287
S1130310DF92EF92FF920F931F93CF93DF932223E9
S1130320C9F0EA012150022F10E00F5F1F4F040FA4
S1130330151FC62ED72EE82EF92EC701B6010E942E
S1130340800189938FEFC81AD80AE80AF80AC017FF
S1130350D10799F7DF91CF911F910F91FF90EF9003
S1130360DF90CF900895EF92FF921F93CF93DF9386
S1130370CDB7DEB768970FB6F894DEBF0FBECDBF1A
S1130380DB0140912202509123026091240270917A
S113039025024C3F5D4F6E4F7A4F41F08AE2E0E90F
S11303A0F0E001900D928A95E1F753C07D01FC01C4
S11303B012816091360470913704809138049091D1
S11303C0390428E1AE014F5F5F4F0E9487018D859C
S11303D09E85AF85B8890196A11DB11D8D879E8725
S11303E0AF87B88B1033A1F48D819E81AF81B8851E
S11303F00196A11DB11D8D839E83AF83B88784E2CE
S1130400EAEBF0E0D70101900D928A95E1F713C071
S113041089859A85AB85BC850196A11DB11D898707
S11304209A87AB87BC8784E2EEEDF0E0D7010190B8
S11304300D928A95E1F760913604709137048091AA
S113044038049091390428E1AE014F5F5F4F0E9458
S1130450EE0068960FB6F894DEBF0FBECDBFDF91F5
S1130460CF911F91FF90EF90089510BC83E389B959
S113047088E18AB9579A569A86E880BD08955D9BAB
S1130480FECF8CB908955F9BFECF9BB18AB14CB16E
S11304909C7139F486958170382F20E0C901842B32
S11304A008958FEF9FEF0895DC019EEFE6E3F2E0FD
S11304B001900D929A95E1F78EEFE6E3F2E0DF0109
S11304C01D928A95E9F710923502109234027894BD
S11304D008951F920F920FB60F9211242F933F93FA
S11304E04F935F936F937F938F939F93AF93BF9338
S11304F0CF93DF93EF93FF93C0913502D0E00E9436
S11305004302CA5CDD4F8883809135028F5F8093FC
S113051035028E3F21F481E080933402F894FF91F8
S1130520EF91DF91CF91BF91AF919F918F917F9187
S11305306F915F914F913F912F910F900FBE0F904C
S11305401F9018951F920F920FB60F9211242F939C
S11305503F934F935F936F937F938F939F93AF9347
S1130560BF93EF93FF93E0913302EE3F58F481E0A1
S11305708E0F80933302F0E0EC5CFC4F80810E948C
S11305803F0202C010923302FF91EF91BF91AF91ED
S11305909F918F917F916F915F914F913F912F9197
S11305A00F900FBE0F901F901895CF93DF93FC010F
S11305B0C4E3D3E08EEFDE011D928A95E9F79EEF46
S11305C0DE0101900D929A95E1F7809133028F5FDD
S11305D08093330288810E943F02DF91CF91089576
S11305E0BF92CF92DF92EF92FF920F931F93CF931C
S11305F0DF93CDB7DEB7A8970FB6F894DEBF0FBE72
S1130600CDBF80913A0490913B04A0913C04B091F9
S11306103D04BC01CD0160527109810991096093C7
S1130620360470933704809338049093390428E196
S1130630AE014F5F5F4F0E94870189819A81AB8130
S1130640BC818C3F9D4FAE4FBA4F09F452C0AE01EE
S11306504F5F5F4F88E1FA0111928A95E9F78CEFB9
S11306609DEFAEEFBAEF89839A83AB83BC8360912D
S1130670360470913704809138049091390428E14C
S11306800E94EE008EE380933202B12C8E01075E4D
S11306901F4FF0E1BF9EC0011124C0903204D090DE
S11306A03304E0903404F0903504C80ED91EE11CE4
S11306B0F11C20E1A801C701B6010E948701898DC0
S11306C09A8DAB8DBC8D8C3F9D4FAE4FBA4F59F078
S11306D080E1F80111928A95E9F720E1A801C701A8
S11306E0B6010E94EE00B39480913202B81688F2EB
S11306F004C08EE380933202C8CFA8960FB6F89454
S1130700DEBF0FBECDBFDF91CF911F910F91FF9040
S1130710EF90DF90CF90BF9008952F923F924F9229
S11307205F926F927F928F929F92AF92BF92CF927D
S1130730DF92EF92FF920F931F93CF93DF93CDB786
S1130740DEB7A2970FB6F894DEBF0FBECDBFA98A5D
S1130750BA8ACB8ADC8AED8AFE8A0F8B188F298F9E
S11307603A8F4B8F5C8F6D8F7E8F8F8F98A3809184
S11307703202882309F45BC09AA289A2812C912CAD
S1130780612C712C8091320490913304A091340433
S1130790B09135041C012D01280C391C411C511C3D
S11307A020E1AE014F5F5F4FC201B1010E9487019A
S11307B02DB73EB7205131090FB6F8943EBF0FBE96
S11307C02DBFADB7BEB7119680E1FE0171960190C1
S11307D00D928A95E1F7A980BA80CB80DC80ED8008
S11307E0FE800F81188529853A854B855C856D854A
S11307F07E858F859889E9A1FAA109950FB6F894A9
S1130800DEBF0FBECDBF811117C03FEF631A730A5D
S113081080E1880E911C8091320290E0681679067E
S11308200CF4B0CF6FEF7FEF8FEF9FEF09C06FEF46
S11308307FEF8FEF9FEF04C0622D732D842D952DD4
S1130840A2960FB6F894DEBF0FBECDBFDF91CF9155
S11308501F910F91FF90EF90DF90CF90BF90AF90DA
S11308609F908F907F906F905F904F903F902F90CC
S113087008956F927F928F929F92AF92BF92CF9280
S1130880DF92EF92FF920F931F93CF93DF93CDB735
S1130890DEB760970FB6F894DEBF0FBECDBF3B0145
S11308A020E1FC013296DE01119601900D922A9509
S11308B0E1F78CEFA82E89838DEF8A838EEF8B83EB
S11308C08AEF8C830F2EFEE88F2EF0E09F2EF02D02
S11308D00F2EFDEFBF2EF02D0F2EFEEFCF2EF02D9D
S11308E00F2EFAEFDF2EF02DED80FE800F8118859C
S11308F029853A854B855C856D857E858F859889AC
S11309000E948D036F3F2FEF72078207920779F0E1
S113091020E1AE014F5F5F4F0E94EE0084E2E2E00F
S1130920F1E0D30101900D928A95E1F708C08AE1C4
S1130930E6E2F1E0D30101900D928A95E1F7609629
S11309400FB6F894DEBF0FBECDBFDF91CF911F91DC
S11309500F91FF90EF90DF90CF90BF90AF909F905A
S11309608F907F906F9008956F927F928F929F9255
S1130970AF92BF92CF92DF92EF92FF920F931F93A9
S1130980CF93DF93CDB7DEB7A0970FB6F894DEBF51
S11309900FBECDBF3B0120E1FC013296DE01119672
S11309A001900D922A95E1F70F2EF9E48F2EF0E0D5
S11309B09F2EF02DA980BA80CB80DC80ED80FE8054
S11309C00F81188529853A854B855C856D857E85E3
S11309D08F8598890E948D036F3F2FEF72078207DE
S11309E09207A1F0AE014F5E5F4F20E1FA01119230
S11309F02A95E9F720E10E94EE0088E2E0E4F1E0C4
S1130A00D30101900D928A95E1F708C088E2E8E6E7
S1130A10F1E0D30101900D928A95E1F7A0960FB60B
S1130A20F894DEBF0FBECDBFDF91CF911F910F9120
S1130A30FF90EF90DF90CF90BF90AF909F908F90FA
S1130A407F906F9008956F927F928F929F92AF9252
S1130A50BF92CF92DF92EF92FF920F931F93CF93A7
S1130A60DF93CDB7DEB760970FB6F894DEBF0FBE45
S1130A70CDBF3B0120E1FC013296DE0111960190CD
S1130A800D922A95E1F70F2EF9E48F2EF0E09F2EB8
S1130A90F02DA980BA80CB80DC80ED80FE800F81B0
S1130AA0188529853A854B855C856D857E858F857E
S1130AB098890E948D036F3F2FEF72078207920778
S1130AC071F020E142E252E00E94870180E2E0E915
S1130AD0F1E0D30101900D928A95E1F708C086E216
S1130AE0E0EBF1E0D30101900D928A95E1F7609675
S1130AF00FB6F894DEBF0FBECDBFDF91CF911F912B
S1130B000F91FF90EF90DF90CF90BF90AF909F90A8
S1130B108F907F906F9008954F925F926F927F9223
S1130B208F929F92AF92BF92EF92FF920F931F9377
S1130B30CF93DF9300D000D0CDB7DEB72B013C01BB
S1130B4049015A01232B242B252B81F181E090E0CC
S1130B50A0E0B0E089839A83AB83BC8380FE10C09D
S1130B60A301920169817A818B819C810E9455083D
S1130B70A80197010E94650869837A838B839C830B
S1130B80A3019201C301B2010E945508A801970173
S1130B900E9465082B013C01B694A794979487940E
S1130BA081149104A104B104C9F608C081E090E065
S1130BB0A0E0B0E089839A83AB83BC8369817A81A6
S1130BC08B819C810F900F900F900F90DF91CF91AC
S1130BD01F910F91FF90EF90BF90AF909F908F90D7
S1130BE07F906F905F904F9008952F923F924F9215
S1130BF05F926F927F928F929F92BF92CF92DF9279
S1130C00EF92FF920F931F93CF93DF93CDB7DEB78D
S1130C1068970FB6F894DEBF0FBECDBF4C013B0101
S1130C2086E0F401DB0101900D928A95E1F7F4016D
S1130C3022803380448055802114310441045104BE
S1130C4089F1B12C8B2D90E06C01CC0CDD1CF6E00D
S1130C50CF0ED11CC60CD71CE0902602F0902702C0
S1130C60009128021091290220912A0230912B022E
S1130C7040912C0250912D02F401E80FF91F668176
S1130C8070E080E090E00E948C05F601718360833F
S1130C90B3948B2D90E0A0E0B0E082159305A405F9
S1130CA0B50580F260913604709137048091380460
S1130CB09091390428E1AE014F5F5F4F0E94870194
S1130CC089899A89AB89BC89820D931DA41DB51DA0
S1130CD0898B9A8BAB8BBC8B6091360470913704F3
S1130CE0809138049091390428E1AE014F5F5F4F41
S1130CF00E94EE0068960FB6F894DEBF0FBECDBF1B
S1130D00DF91CF911F910F91FF90EF90DF90CF90E3
S1130D10BF909F908F907F906F905F904F903F9087
S1130D202F9008952F923F924F925F926F927F92ED
S1130D308F929F92AF92BF92DF92EF92FF920F93A6
S1130D401F93CF93DF93CDB7DEB768970FB6F894B0
S1130D50DEBF0FBECDBF4C013B0186E0F401DB01D9
S1130D6001900D928A95E1F7F4012280338044804A
S1130D705580211431044104510481F1D12C8D2D6D
S1130D8090E05C01F6E0AF0EB11CA60CB71CE0903D
S1130D902602F09027020091280210912902209146
S1130DA02E0230912F024091300250913102880F6F
S1130DB0991FF401E80FF91F6681778180E090E0C4
S1130DC00E948C05F5016083D3948D2D90E0A0E002
S1130DD0B0E082159305A405B50588F26091360448
S1130DE070913704809138049091390428E1AE0160
S1130DF04F5F5F4F0E9487018D899E89AF89B88DAF
S1130E00820D931DA41DB51D8D8B9E8BAF8BB88F4A
S1130E1060913604709137048091380490913904BC
S1130E2028E1AE014F5F5F4F0E94EE0068960FB657
S1130E30F894DEBF0FBECDBFDF91CF911F910F910C
S1130E40FF90EF90DF90BF90AF909F908F907F9036
S1130E506F905F904F903F902F900895CF93DF93C2
S1130E60CDB7DEB768970FB6F894DEBF0FBECDBF1F
S1130E70609136047091370480913804909139045C
S1130E8028E1AE014F5F5F4F0E9487018D859E85EB
S1130E90AF85B8890196A11DB11D8D879E87AF8747
S1130EA0B88B609136047091370480913804909126
S1130EB0390428E1AE014F5F5F4F0E94EE0068964F
S1130EC00FB6F894DEBF0FBECDBFDF91CF9108956A
S1130ED081E3FB0181838083AB014E5F5F4F6091AF
S1130EE0360470913704809138049091390428E1D4
S1130EF00E9487010E942E070895EF92FF920F939C
S1130F001F93CF93DF93CDB7DEB760970FB6F894F6
S1130F10DEBF0FBECDBF7B01809132028823B9F1C1
S1130F2000E010E080E1189F9001112480913204C8
S1130F3090913304A0913404B0913504BC01CD01E7
S1130F40620F731F811D911D20E1AE014F5F5F4F42
S1130F500E94870189819A81AB81BC818C3F9D4F1E
S1130F60AE4FBA4F79F4F70184E0089FE00DF11D0C
S1130F70112489859A85AB85BC8580839183A2835E
S1130F80B3830F5F1F5F80913202181758F20E94DB
S1130F902E0760960FB6F894DEBF0FBECDBFDF916B
S1130FA0CF911F910F91FF90EF900895CF93DF930E
S1130FB0CDB7DEB7CC5FD1400FB6F894DEBF0FBE1D
S1130FC0CDBF1FEF1ABB0E94C00081E08BBB0E9403
S1130FD0F00282E08BBB0E9435021BBB2FEF84E33F
S1130FE09CE0215080409040E1F700C000001BBA13
S1130FF078948E0101501F4F0F2EFEEFDF2EF02D3F
S1131000FE0131967F0180913402882309F443C0A4
S1131010F8012D2D11922A95E9F7F7012D2D119242
S11310202A95E9F7C8010E945402F801808180538F
S1131030893048F08CE1E6EDF1E0D70101900D92A2
S11310408A95E1F724C090E0FC01EE0FFF1FE80F42
S1131050F91FE05AFF4F3281F8012181321749F01C
S11310608FE2E2EFF1E0D70101900D928A95E1F76A
S11310700EC0FC01EE0FFF1F8E0F9F1FFC01E05AF4
S1131080FF4F0190F081E02DB701C8010995C70118
S11310900E94D502B8CFFFEF21EE84E0F15020404A
S11310A08040E1F700C00000AECFDB018F939F9337
S11310B00E948708BF91AF91A29F800D911DA39FAD
S11310C0900DB29F900D11240895A1E21A2EAA1B2F
S11310D0BB1BFD010DC0AA1FBB1FEE1FFF1FA217E4
S11310E0B307E407F50720F0A21BB30BE40BF50BE1
S11310F0661F771F881F991F1A9469F7609570956A
S1131100809590959B01AC01BD01CF0108950E948B
S11311109208A59F900DB49F900DA49F800D911DE2
S113112011240895A29FB001B39FC001A39F700D25
S1131130811D1124911DB29F700D811D1124911DDB
S10911400895F894FFCFAE
S1131146F50532920632390433B404312305316885
S11311560730B301317D07301A013031314545502E
S1131166524F4D2077617320636C6561726564002C
S11311763030456E6372797074696F6E2070617277
S1131186616D6574657273206E2C652C64206172C2
S113119665206E6F7420736574003131456E637219
S11311A6797074696F6E2077696C6C206265207340
S11311B6746172746564206E6F772E2E2E00313141
S11311C644656372797074696F6E2077696C6C20FC
S11311D662652073746172746564206E6F772E2E57
S11311E62E003131506172616D65746572732061D0
S11311F6726520616464656420746F20636F6E7425
S113120661696E65720030304E6F206672656520C6
S1131216737061636520696E20454550524F4D00D9
S11312263131506172616D657465727320617265E6
S11312362064656C657465642066726F6D20636FE7
S11312466E7461696E6572003030506172616D65ED
S11312567465727320617265206E6F7420666F7593
S11312666E6420696E20636F6E7461696E657200C8
S11312763131456E6372797074696F6E2070617274
S1131286616D65746572732061726520736574009F
S11312963030456E6372797074696F6E2070617256
S11312A6616D657465727320776572656E27742047
S11312B6666F756E640030304F7065726174696F65
S11312C66E20636F646520697320696E76616C694C
S11312D664003030546869732066756E6374696F90
S11312E66E2068617320616E6F7468657220636F27
S11312F6756E74206F6620617267756D656E7473A2
S10513060000E1
S9030000FC
