:100000000C942A000C9447000C9447000C94470071
:100010000C9447000C9447000C9447000C94470044
:100020000C9447000C9447000C9447000C94470034
:100030000C9447000C9455020C9447000C948E02CB
:100040000C9447000C9447000C9447000C94470014
:100050000C94470011241FBECFE5D8E0DEBFCDBF12
:1000600012E0A0E6B0E0E8E8F0E102C005900D92F1
:10007000A232B107D9F724E0A2E2B2E001C01D929A
:10008000AE33B207E1F70E9483070C9442080C9448
:100090000000AF92BF92CF92DF92EF92FF920F9348
:1000A0001F93CF93DF93CDB7DEB760970FB6F89469
:1000B000DEBF0FBECDBFA982BA82CB82DC82298788
:1000C0003A874B875C8789819A81AB81BC818C3F61
:1000D0009D4FAE4FBA4F71F481E009851A852B858B
:1000E0003C854DA15EA16FA178A5041715072607D1
:1000F000370709F080E060960FB6F894DEBF0FBEB8
:10010000CDBFDF91CF911F910F91FF90EF90DF90C6
:10011000CF90BF90AF900895AF92BF92CF92DF92F1
:10012000EF92FF920F931F93CF93DF93CDB7DEB77C
:1001300060970FB6F894DEBF0FBECDBFA982BA821A
:10014000CB82DC8281E049815A816B817C814C3F8A
:100150005D4F6E4F7A4F09F480E060960FB6F894C9
:10016000DEBF0FBECDBFDF91CF911F910F91FF90EA
:10017000EF90DF90CF90BF90AF9008958FB390E055
:10018000A0E0B0E0BA2FA92F982F882780933204DF
:1001900090933304A0933404B09335042EB3822B90
:1001A0008093320490933304A0933404B0933504C5
:1001B0009C5FAF4FBF4F80933A0490933B04A09352
:1001C0003C04B0933D040895E199FECF7FBB6EBB24
:1001D0004DBBE29AE19A0895CF92DF92EF92FF929F
:1001E0000F931F93CF93DF93EA018A01020F111D32
:1001F0006B017C01C017D10759F04991C701B601C5
:100200000E94E4008FEFC81AD80AE80AF80AF2CF71
:10021000DF91CF911F910F91FF90EF90DF90CF90E2
:100220000895CF92DF92EF92FF921F93CF93DF93C7
:10023000CDB7DEB7A8970FB6F894DEBF0FBECDBF1F
:100240006B017E0189E1E80EF11C80E1F70111925A
:100250008A95E9F710E0809132021817C0F4F0E1B6
:100260001F9F900111248091320490913304A0913A
:100270003404B0913504BC01CD01620F731F811DA0
:10028000911D20E1A7010E94EC001F5FE4CFAE01A9
:100290004F5F5F4F88E1FA0111928A95E9F78CEF81
:1002A0009DEFAEEFBAEF89839A83AB83BC836091F5
:1002B000360470913704809138049091390428E114
:1002C0000E94EC006BE770E0C601A8960FB6F894A8
:1002D000DEBF0FBECDBFDF91CF911F91FF90EF909A
:1002E000DF90CF900C943B08E199FECF7FBB6EBBB3
:1002F000E09A8DB30895CF92DF92EF92FF920F9321
:100300001F93CF93DF93EA018A01020F111D6B0146
:100310007C01C017D10759F0C701B6010E947401D2
:1003200089938FEFC81AD80AE80AF80AF2CFDF914A
:10033000CF911F910F91FF90EF90DF90CF90089594
:10034000FF920F931F93CF93DF93CDB7DEB76897DC
:100350000FB6F894DEBF0FBECDBF9C01CB0140911C
:1003600022025091230260912402709125024C3F99
:100370005D4F6E4F7A4F79F060E970E068960FB686
:10038000F894DEBF0FBECDBFDF91CF911F910F91CB
:10039000FF900C943B088C01F901F28060913604C7
:1003A00070913704809138049091390428E1AE01AE
:1003B0004F5F5F4F0E947B018D859E85AF85B88919
:1003C0000196A11DB11D8D879E87AF87B88B80E3F5
:1003D000F8120EC08D819E81AF81B8850196A11D56
:1003E000B11D8D839E83AF83B8876AEB70E00DC02B
:1003F00089859A85AB85BC850196A11DB11D89872C
:100400009A87AB87BC876EED70E0C8010E943B08FD
:1004100060913604709137048091380490913904CA
:1004200028E1AE014F5F5F4F0E94EC0068960FB667
:10043000F894DEBF0FBECDBFDF91CF911F910F911A
:10044000FF90089510BC83E389B988E18AB9579A6F
:10045000569A86E880BD08955D9BFECF8CB90895BD
:100460005F9BFECF3BB12AB14CB13C7131F4269574
:100470002170922F80E0842B08958FEF9FEF0895D5
:10048000DC019EEFE6E3F2E001900D929A95E1F730
:100490008EEFE6E3F2E0DF011D928A95E9F7109214
:1004A000350210923402789408951F920F920FB67D
:1004B0000F9211242F933F934F935F936F937F93EA
:1004C0008F939F93AF93BF93CF93DF93EF93FF935C
:1004D000C0913502D0E00E943002CA5CDD4F8883B3
:1004E000809135028F5F809335028E3F21F481E049
:1004F00080933402F894FF91EF91DF91CF91BF91F7
:10050000AF919F918F917F916F915F914F913F91AB
:100510002F910F900FBE0F901F9018951F920F9262
:100520000FB60F9211242F933F934F935F936F93C6
:100530007F938F939F93AF93BF93EF93FF93E0913C
:100540003302EE3F58F481E08E0F80933302F0E0E7
:10055000EC5CFC4F80810E942C0202C0109233029E
:10056000FF91EF91BF91AF919F918F917F916F918B
:100570005F914F913F912F910F900FBE0F901F9061
:100580001895CF93DF93FC01C4E3D3E08EEFDE0137
:100590001D928A95E9F79EEFDE0101900D929A95E2
:1005A000E1F7809133028F5F809333028881DF917E
:1005B000CF910C942C02AF92BF92CF92DF92EF9228
:1005C000FF920F931F93CF93DF93CDB7DEB7A8971A
:1005D0000FB6F894DEBF0FBECDBF80913A04909164
:1005E0003B04A0913C04B0913D04BC01CD0160529C
:1005F00071098109910960933604709337048093DF
:1006000038049093390428E18E010F5F1F4FA80131
:100610000E947B0189819A81AB81BC818C3F9D4F77
:10062000AE4FBA4FC9F088E1F80111928A95E9F707
:100630008CEF9DEFAEEFBAEF89839A83AB83BC83D7
:100640006091360470913704809138049091390498
:1006500028E1A8010E94EC008EE38093320210E0B2
:100660005E01F9E1AF0EB11C80913202181760F5FE
:1006700020E1129FC0011124C0903204D0903304B5
:10068000E0903404F0903504C80ED91EE11CF11C32
:1006900020E1A501C701B6010E947B01898D9A8DD9
:1006A000AB8DBC8D8C3F9D4FAE4FBA4F59F080E162
:1006B000F50111928A95E9F720E1A501C701B6017C
:1006C0000E94EC001F5FD0CFA8960FB6F894DEBF53
:1006D0000FBECDBFDF91CF911F910F91FF90EF9093
:1006E000DF90CF90BF90AF9008952F923F924F929E
:1006F0005F926F927F928F929F92AF92BF92CF92B2
:10070000DF92EF92FF920F931F93CF93DF93CDB7BA
:10071000DEB7A2970FB6F894DEBF0FBECDBFA98A91
:10072000BA8ACB8ADC8AED8AFE8A0F8B188F298FD2
:100730003A8F4B8F5C8F6D8F7E8F8F8F98A39AA28D
:1007400089A2612C712C812C912C8091320290E035
:10075000881699060CF04AC08091320490913304B7
:10076000A0913404B09135041C012D01260C371CD6
:10077000411C511C20E1AE014F5F5F4FC201B1012E
:100780000E947B012DB73EB7205131090FB6F89476
:100790003EBF0FBE2DBFADB7BEB7119680E1FE01C3
:1007A000719601900D928A95E1F7A980BA80CB806D
:1007B000DC80ED80FE800F81188529853A854B8588
:1007C0005C856D857E858F859889E9A1FAA109955B
:1007D000F0E16F0E711C0FB6F894DEBF0FBECDBFF7
:1007E000811109C03FEF831A930AAFCF6FEF7FEFFC
:1007F0008FEF9FEF02C0B101C201A2960FB6F8942D
:10080000DEBF0FBECDBFDF91CF911F910F91FF9043
:10081000EF90DF90CF90BF90AF909F908F907F90A0
:100820006F905F904F903F902F9008956F927F92BE
:100830008F929F92AF92BF92CF92DF92EF92FF92F0
:100840000F931F93CF93DF93CDB7DEB760970FB6AB
:10085000F894DEBF0FBECDBF3B0120E1FC01329614
:10086000DE01119601900D922A95E1F78CEFA82EEA
:1008700089838DEF8A838EEF8B838AEF8C838CE85C
:10088000882E80E0982E9DEFB92E2EEFC22E3AEFE3
:10089000D32EED80FE800F81188529853A854B8502
:1008A0005C856D857E858F8598890E9475036F3F75
:1008B0002FEF72078207920749F020E1AE014F5FE8
:1008C0005F4F0E94EC0062E071E002C066E271E0FE
:1008D000C30160960FB6F894DEBF0FBECDBFDF91A7
:1008E000CF911F910F91FF90EF90DF90CF90BF902D
:1008F000AF909F908F907F906F900C943B086F9279
:100900007F928F929F92AF92BF92CF92DF92EF929F
:10091000FF920F931F93CF93DF93CDB7DEB7A097CE
:100920000FB6F894DEBF0FBECDBF3B0120E1FC0146
:100930003296DE01519601900D922A95E1F789E4F5
:10094000882E80E0982EA988BA88CB88DC88ED882C
:10095000FE880F89188D298D3A8D4B8D5C8D6D8D9C
:100960007E8D8F8D98A10E9475036F3F2FEF7207C8
:100970008207920771F0AE014F5F5F4F20E1FA01ED
:1009800011922A95E9F720E10E94EC0060E471E001
:1009900002C068E671E0C301A0960FB6F894DEBF0E
:1009A0000FBECDBFDF91CF911F910F91FF90EF90C0
:1009B000DF90CF90BF90AF909F908F907F906F907F
:1009C0000C943B086F927F928F929F92AF92BF924E
:1009D000CF92DF92EF92FF920F931F93CF93DF930B
:1009E000CDB7DEB760970FB6F894DEBF0FBECDBFB0
:1009F0003B0120E1FC013296DE01119601900D923F
:100A00002A95E1F789E4882E80E0982EA980BA80A3
:100A1000CB80DC80ED80FE800F81188529853A85AA
:100A20004B855C856D857E858F8598890E947503D1
:100A30006F3F2FEF72078207920741F020E142E2F9
:100A400052E00E947B0160E971E002C060EB71E05E
:100A5000C30160960FB6F894DEBF0FBECDBFDF9125
:100A6000CF911F910F91FF90EF90DF90CF90BF90AB
:100A7000AF909F908F907F906F900C943B084F9217
:100A80005F926F927F928F929F92AF92BF92EF92FE
:100A9000FF920F931F93CF93DF9300D000D0CDB779
:100AA000DEB72B013C0149015A0181E090E0A0E052
:100AB000B0E089839A83AB83BC8381149104A10441
:100AC000B10419F180FE10C0A301920169817A81FD
:100AD0008B819C810E94EF07A80197010E94FF076C
:100AE00069837A838B839C83A3019201C301B20142
:100AF0000E94EF07A80197010E94FF072B013C010C
:100B0000B694A79497948794D8CF69817A818B8182
:100B10009C810F900F900F900F90DF91CF911F91BC
:100B20000F91FF90EF90BF90AF909F908F907F902C
:100B30006F905F904F9008952F923F924F925F92E7
:100B40006F927F929F92AF92BF92CF92DF92EF927D
:100B5000FF920F931F93CF93DF93CDB7DEB7A0978C
:100B60000FB6F894DEBF0FBECDBF6C015B0186E00F
:100B7000F601DB0101900D928A95E1F7D6011296FC
:100B80004D905D906D907C9015978091260290918C
:100B90002702A0912802B0912902898F9A8FAB8FEA
:100BA000BC8F80912A0290912B02A0912C02B091CF
:100BB0002D028D8F9E8FAF8FB8A3912C892D90E041
:100BC000A0E0B0E084159505A605B70500F5892DD0
:100BD00090E01C01220C331CA6E02A0E311C2A0CCA
:100BE0003B1CF601E80FF91F668170E080E090E0A1
:100BF000E98CFA8C0B8D1C8D2D8D3E8D4F8D58A15F
:100C00000E943F05F101718360839394D7CF609177
:100C1000360470913704809138049091390428E1AA
:100C2000AE014F5F5F4F0E947B0189899A89AB8932
:100C3000BC89480E591E6A1E7B1E498A5A8A6B8AD5
:100C40007C8A6091360470913704809138049091C9
:100C5000390428E1AE014F5F5F4F0E94EC00A0967F
:100C60000FB6F894DEBF0FBECDBFDF91CF911F91BD
:100C70000F91FF90EF90DF90CF90BF90AF909F903B
:100C80007F906F905F904F903F902F9008953F928C
:100C90004F925F926F927F928F929F92AF92BF928C
:100CA000CF92DF92EF92FF920F931F93CF93DF9338
:100CB000CDB7DEB768970FB6F894DEBF0FBECDBFD5
:100CC0006C014B0186E0F601DB0101900D928A95E3
:100CD000E1F7F6014280538064807580312C832DCA
:100CE00090E0A0E0B0E084159505A605B70538F5BD
:100CF000832D90E05C01F6E0AF0EB11CA80CB91C8E
:100D0000E0902602F090270200912802109129021B
:100D100020912E0230912F024091300250913102E9
:100D2000880F991FF601E80FF91F6681778180E02F
:100D300090E00E943F05F50160833394D0CF60912D
:100D4000360470913704809138049091390428E179
:100D5000AE014F5F5F4F0E947B018D899E89AF89F5
:100D6000B88D480E591E6A1E7B1E4D8A5E8A6F8A98
:100D7000788E609136047091370480913804909198
:100D8000390428E1AE014F5F5F4F0E94EC00689686
:100D90000FB6F894DEBF0FBECDBFDF91CF911F918C
:100DA0000F91FF90EF90DF90CF90BF90AF909F900A
:100DB0008F907F906F905F904F903F900895CF936A
:100DC000DF93CDB7DEB768970FB6F894DEBF0FBEDE
:100DD000CDBF6091360470913704809138049091B2
:100DE000390428E1AE014F5F5F4F0E947B018D8582
:100DF0009E85AF85B8890196A11DB11D8D879E87FF
:100E0000AF87B88B609136047091370480913804B5
:100E10009091390428E1AE014F5F5F4F0E94EC00D2
:100E200068960FB6F894DEBF0FBECDBFDF91CF91AD
:100E3000089581E3FB0181838083AB014E5F5F4FA7
:100E40006091360470913704809138049091390490
:100E500028E10E947B010C94DF06EF92FF920F9332
:100E60001F93CF93DF93CDB7DEB760970FB6F8949B
:100E7000DEBF0FBECDBF7B0100E010E080913202EB
:100E8000181790F580E1189F900111248091320489
:100E900090913304A0913404B0913504BC01CD018C
:100EA000620F731F811D911D20E1AE014F5F5F4FE7
:100EB0000E947B0189819A81AB81BC818C3F9D4FCF
:100EC000AE4FBA4F79F4F70184E0089FE00DF11DB1
:100ED000112489859A85AB85BC8580839183A28303
:100EE000B3830F5F1F5FCACF0E94DF0660960FB605
:100EF000F894DEBF0FBECDBFDF91CF911F910F9150
:100F0000FF90EF900895CF93DF93CDB7DEB7CC5F1E
:100F1000D1400FB6F894DEBF0FBECDBF1FEF1ABB96
:100F20000E94BE0081E08BBB0E94DB0282E08BBB93
:100F30000E9422021BBB2FEF84E39CE021508040E3
:100F40009040E1F700C000001BBA78948E01015078
:100F50001F4F3EEFD32EDE0111967D0180913402AA
:100F6000882399F1F8012D2D11922A95E9F7D701DF
:100F7000ED2D1D92EA95E9F7C8010E944002D801C3
:100F8000EC91E053E93018F066ED71E010C0F0E04C
:100F9000CF01880F991FE80FF91FE05AFF4F928188
:100FA000D80111968C91981731F062EF71E0C7016A
:100FB0000E943B0806C00190F081E02DB701C801F6
:100FC0000995C7010E94C102C9CFBFEFE1EEF4E06D
:100FD000B150E040F040E1F700C00000BFCFDB01BE
:100FE0008F939F930E942108BF91AF91A29F800D84
:100FF000911DA39F900DB29F900D11240895A1E221
:101000001A2EAA1BBB1BFD010DC0AA1FBB1FEE1F82
:10101000FF1FA217B307E407F50720F0A21BB30BCD
:10102000E40BF50B661F771F881F991F1A9469F749
:1010300060957095809590959B01AC01BD01CF01A5
:1010400008950E942C08A59F900DB49F900DA49F19
:10105000800D911D11240895A29FB001B39FC0017E
:10106000A39F700D811D1124911DB29F700D811DD4
:101070001124911D0895FB01DC0101900D920020C7
:08108000E1F70895F894FFCF99
:101088009C05324706321604337F0431E2043119D5
:101098000730A001312D073011013031314545505D
:1010A800524F4D2077617320636C656172656400EF
:1010B8003030456E6372797074696F6E207061723A
:1010C800616D6574657273206E2C652C6420617285
:1010D80065206E6F7420736574003131456E6372DC
:1010E800797074696F6E2077696C6C206265207303
:1010F800746172746564206E6F772E2E2E00313104
:1011080044656372797074696F6E2077696C6C20BE
:1011180062652073746172746564206E6F772E2E19
:101128002E003131506172616D6574657273206192
:10113800726520616464656420746F20636F6E74E7
:1011480061696E65720030304E6F20667265652089
:10115800737061636520696E20454550524F4D009C
:101168003131506172616D657465727320617265A9
:101178002064656C657465642066726F6D20636FAA
:101188006E7461696E6572003030506172616D65B0
:101198007465727320617265206E6F7420666F7556
:1011A8006E6420696E20636F6E7461696E6572008B
:1011B8003131456E6372797074696F6E2070617237
:1011C800616D657465727320617265207365740062
:1011D8003030456E6372797074696F6E2070617219
:1011E800616D657465727320776572656E2774200A
:1011F800666F756E640030304F7065726174696F28
:101208006E20636F646520697320696E76616C690E
:1012180064003030546869732066756E6374696F52
:101228006E2068617320616E6F7468657220636FE9
:10123800756E74206F6620617267756D656E747364
:021248000000A4
:00000001FF
